{
  "_format": "hh-sol-artifact-1",
  "contractName": "KnowledgeVault",
  "sourceName": "contracts/KnowledgeVault.sol",
  "abi": [
    {
      "inputs": [
        {
          "internalType": "address",
          "name": "_tokenContract",
          "type": "address"
        }
      ],
      "stateMutability": "nonpayable",
      "type": "constructor"
    },
    {
      "anonymous": false,
      "inputs": [
        {
          "indexed": true,
          "internalType": "uint256",
          "name": "eventId",
          "type": "uint256"
        },
        {
          "indexed": false,
          "internalType": "string",
          "name": "title",
          "type": "string"
        },
        {
          "indexed": false,
          "internalType": "string",
          "name": "date",
          "type": "string"
        }
      ],
      "name": "EventCreated",
      "type": "event"
    },
    {
      "anonymous": false,
      "inputs": [
        {
          "indexed": true,
          "internalType": "uint256",
          "name": "topicId",
          "type": "uint256"
        },
        {
          "indexed": true,
          "internalType": "address",
          "name": "creator",
          "type": "address"
        },
        {
          "indexed": false,
          "internalType": "string",
          "name": "title",
          "type": "string"
        }
      ],
      "name": "ForumTopicCreated",
      "type": "event"
    },
    {
      "anonymous": false,
      "inputs": [
        {
          "indexed": true,
          "internalType": "uint256",
          "name": "id",
          "type": "uint256"
        },
        {
          "indexed": false,
          "internalType": "bool",
          "name": "status",
          "type": "bool"
        }
      ],
      "name": "ResourceApproved",
      "type": "event"
    },
    {
      "anonymous": false,
      "inputs": [
        {
          "indexed": true,
          "internalType": "uint256",
          "name": "id",
          "type": "uint256"
        },
        {
          "indexed": true,
          "internalType": "address",
          "name": "contributor",
          "type": "address"
        },
        {
          "indexed": false,
          "internalType": "string",
          "name": "title",
          "type": "string"
        },
        {
          "indexed": false,
          "internalType": "enum KnowledgeVault.ResourceCategory",
          "name": "category",
          "type": "uint8"
        }
      ],
      "name": "ResourceSubmitted",
      "type": "event"
    },
    {
      "anonymous": false,
      "inputs": [
        {
          "indexed": true,
          "internalType": "uint256",
          "name": "id",
          "type": "uint256"
        },
        {
          "indexed": true,
          "internalType": "address",
          "name": "voter",
          "type": "address"
        },
        {
          "indexed": false,
          "internalType": "bool",
          "name": "upvote",
          "type": "bool"
        }
      ],
      "name": "ResourceVoted",
      "type": "event"
    },
    {
      "anonymous": false,
      "inputs": [
        {
          "indexed": true,
          "internalType": "address",
          "name": "contributor",
          "type": "address"
        },
        {
          "indexed": false,
          "internalType": "uint256",
          "name": "amount",
          "type": "uint256"
        }
      ],
      "name": "TokensRewarded",
      "type": "event"
    },
    {
      "inputs": [],
      "name": "admin",
      "outputs": [
        {
          "internalType": "address",
          "name": "",
          "type": "address"
        }
      ],
      "stateMutability": "view",
      "type": "function"
    },
    {
      "inputs": [
        {
          "internalType": "uint256",
          "name": "_id",
          "type": "uint256"
        },
        {
          "internalType": "bool",
          "name": "_status",
          "type": "bool"
        }
      ],
      "name": "approveResource",
      "outputs": [],
      "stateMutability": "nonpayable",
      "type": "function"
    },
    {
      "inputs": [
        {
          "internalType": "string",
          "name": "_title",
          "type": "string"
        },
        {
          "internalType": "string",
          "name": "_description",
          "type": "string"
        },
        {
          "internalType": "string",
          "name": "_date",
          "type": "string"
        },
        {
          "internalType": "string",
          "name": "_link",
          "type": "string"
        }
      ],
      "name": "createEvent",
      "outputs": [],
      "stateMutability": "nonpayable",
      "type": "function"
    },
    {
      "inputs": [
        {
          "internalType": "string",
          "name": "_title",
          "type": "string"
        },
        {
          "internalType": "enum KnowledgeVault.ForumCategory",
          "name": "_category",
          "type": "uint8"
        },
        {
          "internalType": "string",
          "name": "_description",
          "type": "string"
        }
      ],
      "name": "createForumTopic",
      "outputs": [],
      "stateMutability": "nonpayable",
      "type": "function"
    },
    {
      "inputs": [],
      "name": "eventCount",
      "outputs": [
        {
          "internalType": "uint256",
          "name": "",
          "type": "uint256"
        }
      ],
      "stateMutability": "view",
      "type": "function"
    },
    {
      "inputs": [
        {
          "internalType": "uint256",
          "name": "",
          "type": "uint256"
        }
      ],
      "name": "events",
      "outputs": [
        {
          "internalType": "uint256",
          "name": "id",
          "type": "uint256"
        },
        {
          "internalType": "string",
          "name": "title",
          "type": "string"
        },
        {
          "internalType": "string",
          "name": "description",
          "type": "string"
        },
        {
          "internalType": "string",
          "name": "date",
          "type": "string"
        },
        {
          "internalType": "string",
          "name": "link",
          "type": "string"
        }
      ],
      "stateMutability": "view",
      "type": "function"
    },
    {
      "inputs": [],
      "name": "forumTopicCount",
      "outputs": [
        {
          "internalType": "uint256",
          "name": "",
          "type": "uint256"
        }
      ],
      "stateMutability": "view",
      "type": "function"
    },
    {
      "inputs": [
        {
          "internalType": "uint256",
          "name": "",
          "type": "uint256"
        }
      ],
      "name": "forumTopics",
      "outputs": [
        {
          "internalType": "uint256",
          "name": "id",
          "type": "uint256"
        },
        {
          "internalType": "string",
          "name": "title",
          "type": "string"
        },
        {
          "internalType": "enum KnowledgeVault.ForumCategory",
          "name": "category",
          "type": "uint8"
        },
        {
          "internalType": "address",
          "name": "creator",
          "type": "address"
        },
        {
          "internalType": "string",
          "name": "description",
          "type": "string"
        },
        {
          "internalType": "uint256",
          "name": "timestamp",
          "type": "uint256"
        }
      ],
      "stateMutability": "view",
      "type": "function"
    },
    {
      "inputs": [
        {
          "internalType": "uint256",
          "name": "_eventId",
          "type": "uint256"
        }
      ],
      "name": "getEvent",
      "outputs": [
        {
          "components": [
            {
              "internalType": "uint256",
              "name": "id",
              "type": "uint256"
            },
            {
              "internalType": "string",
              "name": "title",
              "type": "string"
            },
            {
              "internalType": "string",
              "name": "description",
              "type": "string"
            },
            {
              "internalType": "string",
              "name": "date",
              "type": "string"
            },
            {
              "internalType": "string",
              "name": "link",
              "type": "string"
            }
          ],
          "internalType": "struct KnowledgeVault.Event",
          "name": "",
          "type": "tuple"
        }
      ],
      "stateMutability": "view",
      "type": "function"
    },
    {
      "inputs": [
        {
          "internalType": "uint256",
          "name": "_topicId",
          "type": "uint256"
        }
      ],
      "name": "getForumTopic",
      "outputs": [
        {
          "components": [
            {
              "internalType": "uint256",
              "name": "id",
              "type": "uint256"
            },
            {
              "internalType": "string",
              "name": "title",
              "type": "string"
            },
            {
              "internalType": "enum KnowledgeVault.ForumCategory",
              "name": "category",
              "type": "uint8"
            },
            {
              "internalType": "address",
              "name": "creator",
              "type": "address"
            },
            {
              "internalType": "string",
              "name": "description",
              "type": "string"
            },
            {
              "internalType": "uint256",
              "name": "timestamp",
              "type": "uint256"
            }
          ],
          "internalType": "struct KnowledgeVault.ForumTopic",
          "name": "",
          "type": "tuple"
        }
      ],
      "stateMutability": "view",
      "type": "function"
    },
    {
      "inputs": [
        {
          "internalType": "address",
          "name": "_user",
          "type": "address"
        }
      ],
      "name": "getProfile",
      "outputs": [
        {
          "internalType": "string",
          "name": "",
          "type": "string"
        },
        {
          "internalType": "uint256",
          "name": "",
          "type": "uint256"
        },
        {
          "internalType": "uint256",
          "name": "",
          "type": "uint256"
        }
      ],
      "stateMutability": "view",
      "type": "function"
    },
    {
      "inputs": [],
      "name": "resourceCount",
      "outputs": [
        {
          "internalType": "uint256",
          "name": "",
          "type": "uint256"
        }
      ],
      "stateMutability": "view",
      "type": "function"
    },
    {
      "inputs": [
        {
          "internalType": "uint256",
          "name": "",
          "type": "uint256"
        }
      ],
      "name": "resources",
      "outputs": [
        {
          "internalType": "uint256",
          "name": "id",
          "type": "uint256"
        },
        {
          "internalType": "string",
          "name": "title",
          "type": "string"
        },
        {
          "internalType": "string",
          "name": "url",
          "type": "string"
        },
        {
          "internalType": "string",
          "name": "description",
          "type": "string"
        },
        {
          "internalType": "enum KnowledgeVault.ResourceCategory",
          "name": "category",
          "type": "uint8"
        },
        {
          "internalType": "address",
          "name": "contributor",
          "type": "address"
        },
        {
          "internalType": "uint256",
          "name": "upvotes",
          "type": "uint256"
        },
        {
          "internalType": "uint256",
          "name": "downvotes",
          "type": "uint256"
        },
        {
          "internalType": "bool",
          "name": "approved",
          "type": "bool"
        }
      ],
      "stateMutability": "view",
      "type": "function"
    },
    {
      "inputs": [],
      "name": "rewardPerUpvote",
      "outputs": [
        {
          "internalType": "uint256",
          "name": "",
          "type": "uint256"
        }
      ],
      "stateMutability": "view",
      "type": "function"
    },
    {
      "inputs": [
        {
          "internalType": "string",
          "name": "_profileURI",
          "type": "string"
        }
      ],
      "name": "setProfileURI",
      "outputs": [],
      "stateMutability": "nonpayable",
      "type": "function"
    },
    {
      "inputs": [
        {
          "internalType": "uint256",
          "name": "_reward",
          "type": "uint256"
        }
      ],
      "name": "setRewardPerUpvote",
      "outputs": [],
      "stateMutability": "nonpayable",
      "type": "function"
    },
    {
      "inputs": [
        {
          "internalType": "string",
          "name": "_title",
          "type": "string"
        },
        {
          "internalType": "string",
          "name": "_url",
          "type": "string"
        },
        {
          "internalType": "string",
          "name": "_description",
          "type": "string"
        },
        {
          "internalType": "string[]",
          "name": "_tags",
          "type": "string[]"
        },
        {
          "internalType": "enum KnowledgeVault.ResourceCategory",
          "name": "_category",
          "type": "uint8"
        }
      ],
      "name": "submitResource",
      "outputs": [],
      "stateMutability": "nonpayable",
      "type": "function"
    },
    {
      "inputs": [],
      "name": "tokenContract",
      "outputs": [
        {
          "internalType": "address",
          "name": "",
          "type": "address"
        }
      ],
      "stateMutability": "view",
      "type": "function"
    },
    {
      "inputs": [
        {
          "internalType": "address",
          "name": "",
          "type": "address"
        }
      ],
      "name": "userProfiles",
      "outputs": [
        {
          "internalType": "uint256",
          "name": "totalContributions",
          "type": "uint256"
        },
        {
          "internalType": "uint256",
          "name": "totalTokensEarned",
          "type": "uint256"
        },
        {
          "internalType": "string",
          "name": "profileURI",
          "type": "string"
        }
      ],
      "stateMutability": "view",
      "type": "function"
    },
    {
      "inputs": [
        {
          "internalType": "uint256",
          "name": "_id",
          "type": "uint256"
        },
        {
          "internalType": "bool",
          "name": "_upvote",
          "type": "bool"
        }
      ],
      "name": "voteResource",
      "outputs": [],
      "stateMutability": "nonpayable",
      "type": "function"
    }
  ],
  "bytecode": "0x6080604052600a6003553480156200001657600080fd5b5060405162002f9038038062002f9083398181016040528101906200003c91906200012f565b33600460006101000a81548173ffffffffffffffffffffffffffffffffffffffff021916908373ffffffffffffffffffffffffffffffffffffffff16021790555080600560006101000a81548173ffffffffffffffffffffffffffffffffffffffff021916908373ffffffffffffffffffffffffffffffffffffffff1602179055505062000161565b600080fd5b600073ffffffffffffffffffffffffffffffffffffffff82169050919050565b6000620000f782620000ca565b9050919050565b6200010981620000ea565b81146200011557600080fd5b50565b6000815190506200012981620000fe565b92915050565b600060208284031215620001485762000147620000c5565b5b6000620001588482850162000118565b91505092915050565b612e1f80620001716000396000f3fe608060405234801561001057600080fd5b506004361061012c5760003560e01c8063659d4151116100ad578063cfcbaa8011610071578063cfcbaa801461036a578063d92e6d741461039a578063f23a09aa146103b8578063f851a440146103d4578063fa3a7271146103f25761012c565b8063659d4151146102c65780636d1884e0146102e457806371be2e4a14610314578063786d6b97146103325780637e7006531461034e5761012c565b806332401c07116100f457806332401c0714610209578063332d56d7146102255780634c488f071461025757806355a373d6146102735780636548c02e146102915761012c565b80630a3fa24a146101315780630b7914301461014f5780630f53a47014610183578063121d4539146101b5578063244d6daa146101d1575b600080fd5b61013961040e565b6040516101469190611cdb565b60405180910390f35b61016960048036038101906101649190611d36565b610414565b60405161017a959493929190611df3565b60405180910390f35b61019d60048036038101906101989190611ec0565b61066a565b6040516101ac93929190611eed565b60405180910390f35b6101cf60048036038101906101ca919061216b565b6107d0565b005b6101eb60048036038101906101e69190611d36565b610a3b565b604051610200999897969594939291906122f7565b60405180910390f35b610223600480360381019061021e9190611d36565b610c5b565b005b61023f600480360381019061023a9190611ec0565b610cf5565b60405161024e93929190612399565b60405180910390f35b610271600480360381019061026c9190612403565b610da7565b005b61027b6110a1565b6040516102889190612443565b60405180910390f35b6102ab60048036038101906102a69190611d36565b6110c7565b6040516102bd969594939291906124a6565b60405180910390f35b6102ce611240565b6040516102db9190611cdb565b60405180910390f35b6102fe60048036038101906102f99190611d36565b611246565b60405161030b91906125f9565b60405180910390f35b61031c6114c5565b6040516103299190611cdb565b60405180910390f35b61034c6004803603810190610347919061261b565b6114cb565b005b61036860048036038101906103639190612403565b61151e565b005b610384600480360381019061037f9190611d36565b611618565b6040516103919190612712565b60405180910390f35b6103a261180e565b6040516103af9190611cdb565b60405180910390f35b6103d260048036038101906103cd9190612759565b611814565b005b6103dc6119a8565b6040516103e99190612443565b60405180910390f35b61040c600480360381019061040791906127e4565b6119ce565b005b60005481565b600860205280600052604060002060009150905080600001549080600101805461043d906128ea565b80601f0160208091040260200160405190810160405280929190818152602001828054610469906128ea565b80156104b65780601f1061048b576101008083540402835291602001916104b6565b820191906000526020600020905b81548152906001019060200180831161049957829003601f168201915b5050505050908060020180546104cb906128ea565b80601f01602080910402602001604051908101604052809291908181526020018280546104f7906128ea565b80156105445780601f1061051957610100808354040283529160200191610544565b820191906000526020600020905b81548152906001019060200180831161052757829003601f168201915b505050505090806003018054610559906128ea565b80601f0160208091040260200160405190810160405280929190818152602001828054610585906128ea565b80156105d25780601f106105a7576101008083540402835291602001916105d2565b820191906000526020600020905b8154815290600101906020018083116105b557829003601f168201915b5050505050908060040180546105e7906128ea565b80601f0160208091040260200160405190810160405280929190818152602001828054610613906128ea565b80156106605780601f1061063557610100808354040283529160200191610660565b820191906000526020600020905b81548152906001019060200180831161064357829003601f168201915b5050505050905085565b6060600080600760008573ffffffffffffffffffffffffffffffffffffffff1673ffffffffffffffffffffffffffffffffffffffff168152602001908152602001600020600201600760008673ffffffffffffffffffffffffffffffffffffffff1673ffffffffffffffffffffffffffffffffffffffff16815260200190815260200160002060000154600760008773ffffffffffffffffffffffffffffffffffffffff1673ffffffffffffffffffffffffffffffffffffffff16815260200190815260200160002060010154828054610743906128ea565b80601f016020809104026020016040519081016040528092919081815260200182805461076f906128ea565b80156107bc5780601f10610791576101008083540402835291602001916107bc565b820191906000526020600020905b81548152906001019060200180831161079f57829003601f168201915b505050505092509250925092509193909250565b6000808154809291906107e29061294a565b9190505550604051806101400160405280600054815260200186815260200185815260200184815260200183815260200182600381111561082657610825612256565b5b81526020013373ffffffffffffffffffffffffffffffffffffffff168152602001600081526020016000815260200160001515815250600660008054815260200190815260200160002060008201518160000155602082015181600101908161088f9190612b3e565b5060408201518160020190816108a59190612b3e565b5060608201518160030190816108bb9190612b3e565b5060808201518160040190805190602001906108d8929190611b5b565b5060a08201518160050160006101000a81548160ff0219169083600381111561090457610903612256565b5b021790555060c08201518160050160016101000a81548173ffffffffffffffffffffffffffffffffffffffff021916908373ffffffffffffffffffffffffffffffffffffffff16021790555060e0820151816006015561010082015181600701556101208201518160080160006101000a81548160ff021916908315150217905550905050600760003373ffffffffffffffffffffffffffffffffffffffff1673ffffffffffffffffffffffffffffffffffffffff16815260200190815260200160002060000160008154809291906109dc9061294a565b91905055503373ffffffffffffffffffffffffffffffffffffffff166000547fe2098d70fb0094891c733892609ecf1224a02d968ce23ab52fb69af2b50374e88784604051610a2c929190612c10565b60405180910390a35050505050565b6006602052806000526040600020600091509050806000015490806001018054610a64906128ea565b80601f0160208091040260200160405190810160405280929190818152602001828054610a90906128ea565b8015610add5780601f10610ab257610100808354040283529160200191610add565b820191906000526020600020905b815481529060010190602001808311610ac057829003601f168201915b505050505090806002018054610af2906128ea565b80601f0160208091040260200160405190810160405280929190818152602001828054610b1e906128ea565b8015610b6b5780601f10610b4057610100808354040283529160200191610b6b565b820191906000526020600020905b815481529060010190602001808311610b4e57829003601f168201915b505050505090806003018054610b80906128ea565b80601f0160208091040260200160405190810160405280929190818152602001828054610bac906128ea565b8015610bf95780601f10610bce57610100808354040283529160200191610bf9565b820191906000526020600020905b815481529060010190602001808311610bdc57829003601f168201915b5050505050908060050160009054906101000a900460ff16908060050160019054906101000a900473ffffffffffffffffffffffffffffffffffffffff16908060060154908060070154908060080160009054906101000a900460ff16905089565b600460009054906101000a900473ffffffffffffffffffffffffffffffffffffffff1673ffffffffffffffffffffffffffffffffffffffff163373ffffffffffffffffffffffffffffffffffffffff1614610ceb576040517f08c379a0000000000000000000000000000000000000000000000000000000008152600401610ce290612c8c565b60405180910390fd5b8060038190555050565b6007602052806000526040600020600091509050806000015490806001015490806002018054610d24906128ea565b80601f0160208091040260200160405190810160405280929190818152602001828054610d50906128ea565b8015610d9d5780601f10610d7257610100808354040283529160200191610d9d565b820191906000526020600020905b815481529060010190602001808311610d8057829003601f168201915b5050505050905083565b6006600083815260200190815260200160002060080160009054906101000a900460ff16610e0a576040517f08c379a0000000000000000000000000000000000000000000000000000000008152600401610e0190612cf8565b60405180910390fd5b801561102157600660008381526020019081526020016000206006016000815480929190610e379061294a565b919050555060006003549050600560009054906101000a900473ffffffffffffffffffffffffffffffffffffffff1673ffffffffffffffffffffffffffffffffffffffff166340c10f196006600086815260200190815260200160002060050160019054906101000a900473ffffffffffffffffffffffffffffffffffffffff16836040518363ffffffff1660e01b8152600401610ed6929190612d18565b600060405180830381600087803b158015610ef057600080fd5b505af1158015610f04573d6000803e3d6000fd5b5050505080600760006006600087815260200190815260200160002060050160019054906101000a900473ffffffffffffffffffffffffffffffffffffffff1673ffffffffffffffffffffffffffffffffffffffff1673ffffffffffffffffffffffffffffffffffffffff1681526020019081526020016000206001016000828254610f909190612d41565b925050819055506006600084815260200190815260200160002060050160019054906101000a900473ffffffffffffffffffffffffffffffffffffffff1673ffffffffffffffffffffffffffffffffffffffff167f0d3ecba324ef5a283bcbd5d1a966cab18661432ab3575740c588f7a0144b0dfa826040516110139190611cdb565b60405180910390a25061104e565b6006600083815260200190815260200160002060070160008154809291906110489061294a565b91905055505b3373ffffffffffffffffffffffffffffffffffffffff16827f6569d5f5b7b55d6d0f92da5f5257421876ffc4a5154a8ddef87a76dcb1dc51db836040516110959190612d75565b60405180910390a35050565b600560009054906101000a900473ffffffffffffffffffffffffffffffffffffffff1681565b60096020528060005260406000206000915090508060000154908060010180546110f0906128ea565b80601f016020809104026020016040519081016040528092919081815260200182805461111c906128ea565b80156111695780601f1061113e57610100808354040283529160200191611169565b820191906000526020600020905b81548152906001019060200180831161114c57829003601f168201915b5050505050908060020160009054906101000a900460ff16908060020160019054906101000a900473ffffffffffffffffffffffffffffffffffffffff16908060030180546111b7906128ea565b80601f01602080910402602001604051908101604052809291908181526020018280546111e3906128ea565b80156112305780601f1061120557610100808354040283529160200191611230565b820191906000526020600020905b81548152906001019060200180831161121357829003601f168201915b5050505050908060040154905086565b60035481565b61124e611bb4565b600860008381526020019081526020016000206040518060a001604052908160008201548152602001600182018054611286906128ea565b80601f01602080910402602001604051908101604052809291908181526020018280546112b2906128ea565b80156112ff5780601f106112d4576101008083540402835291602001916112ff565b820191906000526020600020905b8154815290600101906020018083116112e257829003601f168201915b50505050508152602001600282018054611318906128ea565b80601f0160208091040260200160405190810160405280929190818152602001828054611344906128ea565b80156113915780601f1061136657610100808354040283529160200191611391565b820191906000526020600020905b81548152906001019060200180831161137457829003601f168201915b505050505081526020016003820180546113aa906128ea565b80601f01602080910402602001604051908101604052809291908181526020018280546113d6906128ea565b80156114235780601f106113f857610100808354040283529160200191611423565b820191906000526020600020905b81548152906001019060200180831161140657829003601f168201915b5050505050815260200160048201805461143c906128ea565b80601f0160208091040260200160405190810160405280929190818152602001828054611468906128ea565b80156114b55780601f1061148a576101008083540402835291602001916114b5565b820191906000526020600020905b81548152906001019060200180831161149857829003601f168201915b5050505050815250509050919050565b60015481565b80600760003373ffffffffffffffffffffffffffffffffffffffff1673ffffffffffffffffffffffffffffffffffffffff168152602001908152602001600020600201908161151a9190612b3e565b5050565b600460009054906101000a900473ffffffffffffffffffffffffffffffffffffffff1673ffffffffffffffffffffffffffffffffffffffff163373ffffffffffffffffffffffffffffffffffffffff16146115ae576040517f08c379a00000000000000000000000000000000000000000000000000000000081526004016115a590612c8c565b60405180910390fd5b806006600084815260200190815260200160002060080160006101000a81548160ff021916908315150217905550817f3b33fe33fd5a20cdf318659e95f06b725880efaa8c2d96ad59e4b0e01b00edb58260405161160c9190612d75565b60405180910390a25050565b611620611be3565b600960008381526020019081526020016000206040518060c001604052908160008201548152602001600182018054611658906128ea565b80601f0160208091040260200160405190810160405280929190818152602001828054611684906128ea565b80156116d15780601f106116a6576101008083540402835291602001916116d1565b820191906000526020600020905b8154815290600101906020018083116116b457829003601f168201915b505050505081526020016002820160009054906101000a900460ff1660038111156116ff576116fe612256565b5b600381111561171157611710612256565b5b81526020016002820160019054906101000a900473ffffffffffffffffffffffffffffffffffffffff1673ffffffffffffffffffffffffffffffffffffffff1673ffffffffffffffffffffffffffffffffffffffff16815260200160038201805461177b906128ea565b80601f01602080910402602001604051908101604052809291908181526020018280546117a7906128ea565b80156117f45780601f106117c9576101008083540402835291602001916117f4565b820191906000526020600020905b8154815290600101906020018083116117d757829003601f168201915b505050505081526020016004820154815250509050919050565b60025481565b600260008154809291906118279061294a565b91905055506040518060c00160405280600254815260200184815260200183600381111561185857611857612256565b5b81526020013373ffffffffffffffffffffffffffffffffffffffff168152602001828152602001428152506009600060025481526020019081526020016000206000820151816000015560208201518160010190816118b79190612b3e565b5060408201518160020160006101000a81548160ff021916908360038111156118e3576118e2612256565b5b021790555060608201518160020160016101000a81548173ffffffffffffffffffffffffffffffffffffffff021916908373ffffffffffffffffffffffffffffffffffffffff16021790555060808201518160030190816119449190612b3e565b5060a082015181600401559050503373ffffffffffffffffffffffffffffffffffffffff166002547fe6edda67ed4fdde69b713f22725800ae1b367a8b176368ff7b9948b0a6ef6dd88560405161199b9190612d90565b60405180910390a3505050565b600460009054906101000a900473ffffffffffffffffffffffffffffffffffffffff1681565b600460009054906101000a900473ffffffffffffffffffffffffffffffffffffffff1673ffffffffffffffffffffffffffffffffffffffff163373ffffffffffffffffffffffffffffffffffffffff1614611a5e576040517f08c379a0000000000000000000000000000000000000000000000000000000008152600401611a5590612c8c565b60405180910390fd5b60016000815480929190611a719061294a565b91905055506040518060a00160405280600154815260200185815260200184815260200183815260200182815250600860006001548152602001908152602001600020600082015181600001556020820151816001019081611ad39190612b3e565b506040820151816002019081611ae99190612b3e565b506060820151816003019081611aff9190612b3e565b506080820151816004019081611b159190612b3e565b509050506001547fa66af77df260a5c03634cc608c4576078655b434f4b7e128a6e3e7ec733419748584604051611b4d929190612db2565b60405180910390a250505050565b828054828255906000526020600020908101928215611ba3579160200282015b82811115611ba2578251829081611b929190612b3e565b5091602001919060010190611b7b565b5b509050611bb09190611c41565b5090565b6040518060a0016040528060008152602001606081526020016060815260200160608152602001606081525090565b6040518060c00160405280600081526020016060815260200160006003811115611c1057611c0f612256565b5b8152602001600073ffffffffffffffffffffffffffffffffffffffff16815260200160608152602001600081525090565b5b80821115611c615760008181611c589190611c65565b50600101611c42565b5090565b508054611c71906128ea565b6000825580601f10611c835750611ca2565b601f016020900490600052602060002090810190611ca19190611ca5565b5b50565b5b80821115611cbe576000816000905550600101611ca6565b5090565b6000819050919050565b611cd581611cc2565b82525050565b6000602082019050611cf06000830184611ccc565b92915050565b6000604051905090565b600080fd5b600080fd5b611d1381611cc2565b8114611d1e57600080fd5b50565b600081359050611d3081611d0a565b92915050565b600060208284031215611d4c57611d4b611d00565b5b6000611d5a84828501611d21565b91505092915050565b600081519050919050565b600082825260208201905092915050565b60005b83811015611d9d578082015181840152602081019050611d82565b60008484015250505050565b6000601f19601f8301169050919050565b6000611dc582611d63565b611dcf8185611d6e565b9350611ddf818560208601611d7f565b611de881611da9565b840191505092915050565b600060a082019050611e086000830188611ccc565b8181036020830152611e1a8187611dba565b90508181036040830152611e2e8186611dba565b90508181036060830152611e428185611dba565b90508181036080830152611e568184611dba565b90509695505050505050565b600073ffffffffffffffffffffffffffffffffffffffff82169050919050565b6000611e8d82611e62565b9050919050565b611e9d81611e82565b8114611ea857600080fd5b50565b600081359050611eba81611e94565b92915050565b600060208284031215611ed657611ed5611d00565b5b6000611ee484828501611eab565b91505092915050565b60006060820190508181036000830152611f078186611dba565b9050611f166020830185611ccc565b611f236040830184611ccc565b949350505050565b600080fd5b600080fd5b7f4e487b7100000000000000000000000000000000000000000000000000000000600052604160045260246000fd5b611f6d82611da9565b810181811067ffffffffffffffff82111715611f8c57611f8b611f35565b5b80604052505050565b6000611f9f611cf6565b9050611fab8282611f64565b919050565b600067ffffffffffffffff821115611fcb57611fca611f35565b5b611fd482611da9565b9050602081019050919050565b82818337600083830152505050565b6000612003611ffe84611fb0565b611f95565b90508281526020810184848401111561201f5761201e611f30565b5b61202a848285611fe1565b509392505050565b600082601f83011261204757612046611f2b565b5b8135612057848260208601611ff0565b91505092915050565b600067ffffffffffffffff82111561207b5761207a611f35565b5b602082029050602081019050919050565b600080fd5b60006120a461209f84612060565b611f95565b905080838252602082019050602084028301858111156120c7576120c661208c565b5b835b8181101561210e57803567ffffffffffffffff8111156120ec576120eb611f2b565b5b8086016120f98982612032565b855260208501945050506020810190506120c9565b5050509392505050565b600082601f83011261212d5761212c611f2b565b5b813561213d848260208601612091565b91505092915050565b6004811061215357600080fd5b50565b60008135905061216581612146565b92915050565b600080600080600060a0868803121561218757612186611d00565b5b600086013567ffffffffffffffff8111156121a5576121a4611d05565b5b6121b188828901612032565b955050602086013567ffffffffffffffff8111156121d2576121d1611d05565b5b6121de88828901612032565b945050604086013567ffffffffffffffff8111156121ff576121fe611d05565b5b61220b88828901612032565b935050606086013567ffffffffffffffff81111561222c5761222b611d05565b5b61223888828901612118565b925050608061224988828901612156565b9150509295509295909350565b7f4e487b7100000000000000000000000000000000000000000000000000000000600052602160045260246000fd5b6004811061229657612295612256565b5b50565b60008190506122a782612285565b919050565b60006122b782612299565b9050919050565b6122c7816122ac565b82525050565b6122d681611e82565b82525050565b60008115159050919050565b6122f1816122dc565b82525050565b60006101208201905061230d600083018c611ccc565b818103602083015261231f818b611dba565b90508181036040830152612333818a611dba565b905081810360608301526123478189611dba565b905061235660808301886122be565b61236360a08301876122cd565b61237060c0830186611ccc565b61237d60e0830185611ccc565b61238b6101008301846122e8565b9a9950505050505050505050565b60006060820190506123ae6000830186611ccc565b6123bb6020830185611ccc565b81810360408301526123cd8184611dba565b9050949350505050565b6123e0816122dc565b81146123eb57600080fd5b50565b6000813590506123fd816123d7565b92915050565b6000806040838503121561241a57612419611d00565b5b600061242885828601611d21565b9250506020612439858286016123ee565b9150509250929050565b600060208201905061245860008301846122cd565b92915050565b6004811061246f5761246e612256565b5b50565b60008190506124808261245e565b919050565b600061249082612472565b9050919050565b6124a081612485565b82525050565b600060c0820190506124bb6000830189611ccc565b81810360208301526124cd8188611dba565b90506124dc6040830187612497565b6124e960608301866122cd565b81810360808301526124fb8185611dba565b905061250a60a0830184611ccc565b979650505050505050565b61251e81611cc2565b82525050565b600082825260208201905092915050565b600061254082611d63565b61254a8185612524565b935061255a818560208601611d7f565b61256381611da9565b840191505092915050565b600060a0830160008301516125866000860182612515565b506020830151848203602086015261259e8282612535565b915050604083015184820360408601526125b88282612535565b915050606083015184820360608601526125d28282612535565b915050608083015184820360808601526125ec8282612535565b9150508091505092915050565b60006020820190508181036000830152612613818461256e565b905092915050565b60006020828403121561263157612630611d00565b5b600082013567ffffffffffffffff81111561264f5761264e611d05565b5b61265b84828501612032565b91505092915050565b61266d81612485565b82525050565b61267c81611e82565b82525050565b600060c08301600083015161269a6000860182612515565b50602083015184820360208601526126b28282612535565b91505060408301516126c76040860182612664565b5060608301516126da6060860182612673565b50608083015184820360808601526126f28282612535565b91505060a083015161270760a0860182612515565b508091505092915050565b6000602082019050818103600083015261272c8184612682565b905092915050565b6004811061274157600080fd5b50565b60008135905061275381612734565b92915050565b60008060006060848603121561277257612771611d00565b5b600084013567ffffffffffffffff8111156127905761278f611d05565b5b61279c86828701612032565b93505060206127ad86828701612744565b925050604084013567ffffffffffffffff8111156127ce576127cd611d05565b5b6127da86828701612032565b9150509250925092565b600080600080608085870312156127fe576127fd611d00565b5b600085013567ffffffffffffffff81111561281c5761281b611d05565b5b61282887828801612032565b945050602085013567ffffffffffffffff81111561284957612848611d05565b5b61285587828801612032565b935050604085013567ffffffffffffffff81111561287657612875611d05565b5b61288287828801612032565b925050606085013567ffffffffffffffff8111156128a3576128a2611d05565b5b6128af87828801612032565b91505092959194509250565b7f4e487b7100000000000000000000000000000000000000000000000000000000600052602260045260246000fd5b6000600282049050600182168061290257607f821691505b602082108103612915576129146128bb565b5b50919050565b7f4e487b7100000000000000000000000000000000000000000000000000000000600052601160045260246000fd5b600061295582611cc2565b91507fffffffffffffffffffffffffffffffffffffffffffffffffffffffffffffffff82036129875761298661291b565b5b600182019050919050565b60008190508160005260206000209050919050565b60006020601f8301049050919050565b600082821b905092915050565b6000600883026129f47fffffffffffffffffffffffffffffffffffffffffffffffffffffffffffffffff826129b7565b6129fe86836129b7565b95508019841693508086168417925050509392505050565b6000819050919050565b6000612a3b612a36612a3184611cc2565b612a16565b611cc2565b9050919050565b6000819050919050565b612a5583612a20565b612a69612a6182612a42565b8484546129c4565b825550505050565b600090565b612a7e612a71565b612a89818484612a4c565b505050565b5b81811015612aad57612aa2600082612a76565b600181019050612a8f565b5050565b601f821115612af257612ac381612992565b612acc846129a7565b81016020851015612adb578190505b612aef612ae7856129a7565b830182612a8e565b50505b505050565b600082821c905092915050565b6000612b1560001984600802612af7565b1980831691505092915050565b6000612b2e8383612b04565b9150826002028217905092915050565b612b4782611d63565b67ffffffffffffffff811115612b6057612b5f611f35565b5b612b6a82546128ea565b612b75828285612ab1565b600060209050601f831160018114612ba85760008415612b96578287015190505b612ba08582612b22565b865550612c08565b601f198416612bb686612992565b60005b82811015612bde57848901518255600182019150602085019450602081019050612bb9565b86831015612bfb5784890151612bf7601f891682612b04565b8355505b6001600288020188555050505b505050505050565b60006040820190508181036000830152612c2a8185611dba565b9050612c3960208301846122be565b9392505050565b7f4e6f7420617574686f72697a6564000000000000000000000000000000000000600082015250565b6000612c76600e83611d6e565b9150612c8182612c40565b602082019050919050565b60006020820190508181036000830152612ca581612c69565b9050919050565b7f5265736f75726365206e6f7420617070726f7665640000000000000000000000600082015250565b6000612ce2601583611d6e565b9150612ced82612cac565b602082019050919050565b60006020820190508181036000830152612d1181612cd5565b9050919050565b6000604082019050612d2d60008301856122cd565b612d3a6020830184611ccc565b9392505050565b6000612d4c82611cc2565b9150612d5783611cc2565b9250828201905080821115612d6f57612d6e61291b565b5b92915050565b6000602082019050612d8a60008301846122e8565b92915050565b60006020820190508181036000830152612daa8184611dba565b905092915050565b60006040820190508181036000830152612dcc8185611dba565b90508181036020830152612de08184611dba565b9050939250505056fea2646970667358221220c9ed996b24b72bf630e5f7d77040fda45df6b34c6886258e785ba49a7718df8d64736f6c63430008140033",
  "linkReferences": {},
  "deployedLinkReferences": {}
}